:100000000C94F6000C941D050C94DB050C941E0159
:100010000C941E010C941E010C941E010C941E01E4
:100020000C941E010C941E010C941E010C941E01D4
:100030000C941E010C9499060C94BD070C94DA08DC
:100040000C94F7090C941E010C949A020C944C0227
:100050000C941E010C941E010C941E010C941E01A4
:100060000C94DC020C941E01FD0248044804480470
:100070004804480448044804FD024804480448046D
:1000800048044804480448040B034804480448044E
:100090004804480448044804480348044804480401
:1000A00048044804480448040B034804480448042E
:1000B00048044804480448044803480448044804E1
:1000C00048044804480448044104480448044804D7
:1000D00048044804480448045103480448044804B8
:1000E0004804480448044804940348044804480465
:1000F0004804480448044804580348044804480491
:100100004804480448044804940348044804480444
:1001100048044804480448049D034804480448042B
:100120004804480448044804FC03480448044804BC
:1001300048044804480448049D034804480448040B
:100140004804480448044804FC034804480448049C
:100150004804480448044804A703480448044804E1
:100160004804480448044804CE03480448044804AA
:100170004804480448044804A703480448044804C1
:100180004804480448044804CE034804480448048A
:100190004804480448044804F50348044804480453
:1001A0004804480448044804030448044804480434
:1001B0004804480448044804030448044804480424
:1001C0004804480448044804060448044804480411
:1001D00048044804480448043A04480448044804CD
:1001E00048044804480448043A04DB1211241FBEA2
:1001F000CFEFD8E0DEBFCDBF11E0A0E0B1E0EAE193
:10020000FEE202C005900D92A236B107D9F722E0B6
:10021000A2E6B1E001C01D92A631B207E1F710E0FD
:10022000C6EFD0E004C02197FE010E94E415C53F4F
:10023000D107C9F70E943F0C0C940B170C940000D7
:10024000FC01462F248135818681978160857185E7
:1002500001960E94D0152817390791F08681978161
:10026000A281B381A80FB91F4C93868197816085C5
:10027000718501960E94D0159783868381E001C025
:1002800080E090E00895FC0124813581868197818A
:100290002817390799F084819581A281B381A80F2D
:1002A000B91F2C91848195816085718501960E948A
:1002B000D01595838483822F90E008958FEF9FEF70
:1002C0000895FC01462F24813581868197816085C0
:1002D000718501960E94D01528173907C1F08681D3
:1002E0009781A281B381A80FB91F4C938681978112
:1002F0006085718501960E94D01597838683E1EC15
:10030000F0E080818062808381E090E0089580E069
:1003100090E0089567BD089587B5089568BD089574
:1003200088B50895DC019C919B3229F461507109D4
:1003300041E050E046C09D3229F4615071094FEF11
:100340005FEF3FC06115710539F180ED890F8A308B
:1003500090F5FD0131966A0F7B1F40E050E010C020
:10036000A901440F551F220F331F220F331F220FE5
:10037000331F420F531F919120ED290F2A30F0F4C3
:10038000292F30E020533109240F351F6E177F07C6
:1003900039F741E050E007C041E050E020E030E0B4
:1003A00002C020E030E0249FC001259F900D349FC3
:1003B000900D1124089580E090E0089580E090E091
:1003C0000895672B71F380E090E00895DF92EF923B
:1003D000FF920F931F93CF93DF938C017A01FC015F
:1003E0008081882361F0452B09F449C0C62FD72F9F
:1003F000A0E0B0E020E030E0D12C41E007C0A0E078
:10040000B0E0CD0141C0EA16FB06E1F15991581365
:1004100003C02F5F3F4F2BC08F3351F450535A30DE
:1004200020F0CD01809590952FC02F5F3F4F1FC0CA
:100430008B37C9F4F9013196E00FF11F8D2D02C001
:10044000842F9B01B9016F5F7F4F91915917C1F3C1
:100450009D37B9F7882319F02E5F3F4F08C0CD01B3
:100460008095909511C0CD01809590950DC0119605
:10047000F801E20FF31F80818111C5CFC2CF80E068
:1004800090E002C080E090E0DF91CF911F910F914A
:10049000FF90EF90DF9008951F920F920FB60F928A
:1004A00011242F933F935F936F937F938F939F9329
:1004B000AF93BF93EF93FF93EEEFF1E0268537857F
:1004C000808991892817390731F4E1ECF0E08081C7
:1004D0008F7D80831FC0EEEFF1E026853785808910
:1004E00091892817390791F086859785A485B58568
:1004F000A80FB91F2C91868597856289738901960B
:100500000E94D01597878687822F02C08FEF9FEFBA
:100510008093C600FF91EF91BF91AF919F918F9112
:100520007F916F915F913F912F910F900FBE0F9030
:100530001F9018951F920F920FB60F9211242F93B0
:100540003F934F935F936F937F938F939F93AF935B
:10055000BF93EF93FF934091C600EEEFF1E024814B
:100560003581868197816085718501960E94D015BD
:100570002817390781F086819781A281B381A80F5E
:10058000B91F4C93868197816085718501960E9481
:10059000D01597838683FF91EF91BF91AF919F9183
:1005A0008F917F916F915F914F913F912F910F901C
:1005B0000FBE0F901F9018951F920F920FB60F92BB
:1005C00011242F933F934F935F936F937F938F9358
:1005D0009F93AF93BF93EF93FF938091B900E82F60
:1005E000E87F8E2F90E0FC013897E13CF10508F0A0
:1005F0004FC1EC5CFF4F0C94E415E0EDF1E080A5F9
:100600008093BB00ACEBB0E08C918F7C806C8C93C2
:1006100015A614A645C1E0EDF1E0208D318D828D47
:10062000938D2817390759F1208D318D828D938D47
:100630002817390791F0808D918DA689B789A80F69
:10064000B91F2C91808D918D648D758D01960E94BE
:10065000D015918F808F822F02C08FEF9FEF8093F4
:10066000BB00E0EDF1E084A595A5019695A784A7D0
:10067000ECEBF0E080818F7C806C808311C1ECEB2F
:10068000F0E080818F7D806D80831092F90108C138
:10069000ECEBF0E080818F7D806D80831092F9011A
:1006A000FFC0ECEBF0E080818F7C806C8083F8C031
:1006B0004091BB00E0EDF1E022A133A184A195A11E
:1006C00066A177A101960E94D0152817390781F0FD
:1006D00084A195A1A0A1B1A1A80FB91F4C9384A199
:1006E00095A166A177A101960E94D01595A384A338
:1006F000E0EDF1E084A595A5019695A784A724A532
:1007000035A582A593A52817390738F4ECEBF0E05E
:1007100080818F7C806C8083C3C0ECEBF0E08081B3
:100720008F7880688083BCC0ECEBF0E080818F7DA7
:10073000806D80831092F901B3C082E08093F9014B
:10074000ECEBF0E080818F7C806C8083A9C04091CD
:10075000BB00E0EDF1E026853785808991896289CB
:10076000738901960E94D0152817390781F0808976
:100770009189A485B585A80FB91F4C93808991896B
:100780006289738901960E94D015918B808BECEB66
:10079000F0E080818F7C806C808382C04091BB00C0
:1007A000E0EDF1E02685378580899189628973893A
:1007B00001960E94D0152817390781F08089918908
:1007C000A485B585A80FB91F4C938089918962894A
:1007D000738901960E94D015918B808BECEBF0E031
:1007E00080818F7C806C80835BC0ECEBF0E080814B
:1007F0008F7C806C808354C0ECEBF0E080818F783C
:10080000806880834DC082E08093F901E0EDF1E0E3
:1008100024813581868197812817390721F1248128
:100820003581868197812817390791F084819581D8
:10083000A281B381A80FB91F2C9184819581608515
:10084000718501960E94D01595838483822F02C002
:100850008FEF9FEF8093BB00ECEBF0E080818F7C0B
:10086000806C80831DC0ECEBF0E080818F78806825
:10087000808316C0ECEBF0E080818F7C806C8083FD
:100880000FC0ECEBF0E080818F7E806E808308C02B
:10089000ECEBF0E080818F7D806D80831092F90118
:1008A000FF91EF91BF91AF919F918F917F916F9148
:1008B0005F914F913F912F910F900FBE0F901F901E
:1008C00018958130910539F485B5897F816085BDA2
:1008D00081E090E008958230910519F0883091050B
:1008E00039F485B58A7F826085BD88E090E00895FF
:1008F0008330910519F08034910539F485B58B7FEB
:10090000836085BD80E490E008958430910519F0FE
:100910008115914039F485B58C7F846085BD80E078
:1009200091E0089585B58D7F856085BD80E094E078
:1009300008958130910549F4E1E8F0E08081897FF4
:100940008160808381E090E008958230910519F004
:100950008830910549F4E1E8F0E080818A7F826087
:10096000808388E090E008958330910519F0803409
:10097000910549F4E1E8F0E080818B7F836080831A
:1009800080E490E008958430910519F0811591403C
:1009900049F4E1E8F0E080818C7F8460808380E02E
:1009A00091E00895E1E8F0E080818D7F85608083AB
:1009B00080E094E00895CF93DF93EC011E861F86BC
:1009C000188A198A1A8A1B8A1C8A1D8A1982188217
:1009D0001B821A821D821C821F821E821886198623
:1009E0001A861B861D861C861E8E1F8E1A8E1B8ED7
:1009F0001C8E1D8E1E8A1F8A188E198E80E091E033
:100A00000E949904E0E8F0E080818C7F8083E1E837
:100A1000F0E08081877E80838DEC9CECACE4B1E4D7
:100A200088879987AA87BB87EFE6F0E0808181609D
:100A300080837894DF91CF9108951F920F920FB623
:100A40000F921124CF92DF92EF92FF920F931F9398
:100A50002F933F934F935F936F937F938F939F93C6
:100A6000AF93BF93CF93DF93EF93FF938091690090
:100A700081FF0AC08091690080FD0BC005C0809194
:100A8000690080FF43C07EC08091690081FDF7CF7F
:100A900079C0E9E6F0E080818E7F80830091840058
:100AA00010918500C0EBD1E0198308836C857D85AA
:100AB0007D836C838E819F81681B790B80E090E041
:100AC0000E94AC1420E030E040E857E40E94631537
:100AD0006B017C018A819B81B801681B790B80E0E6
:100AE00090E00E94AC149B01AC01C701B6010E94CA
:100AF0009313288539854A855B850E9463156A8B27
:100B00007B8B8C8B9D8B81E08F8F3CC0E9E6F0E086
:100B10008081816080830091840010918500C0EB0A
:100B2000D1E01B830A836C857D857F836E838C81F6
:100B30009D81681B790B80E090E00E94AC1420E05E
:100B400030E040E857E40E9463156B017C01888126
:100B50009981B801681B790B80E090E00E94AC1489
:100B60009B01AC01C701B6010E949313288539850A
:100B70004A855B850E9463156E877F87888B998B7A
:100B800081E08E8FFF91EF91DF91CF91BF91AF9177
:100B90009F918F917F916F915F914F913F912F9195
:100BA0001F910F91FF90EF90DF90CF900F900FBEAD
:100BB0000F901F9018951F920F920FB60F9211244D
:100BC000CF92DF92EF92FF920F931F932F933F9359
:100BD0004F935F936F937F938F939F93AF93BF9345
:100BE000CF93DF93EF93FF938091690083FF0AC057
:100BF0008091690082FD0BC005C08091690082FF71
:100C000043C07EC08091690083FDF7CF79C0E9E6DB
:100C1000F0E080818B7F80830091840010918500BB
:100C2000C0E9D1E0198308836C857D857D836C8361
:100C30008E819F81681B790B80E090E00E94AC144C
:100C400020E030E040E857E40E9463156B017C012E
:100C50008A819B81B801681B790B80E090E00E943B
:100C6000AC149B01AC01C701B6010E949313288507
:100C700039854A855B850E9463156A8B7B8B8C8BDB
:100C80009D8B81E08F8F3CC0E9E6F0E0808184603D
:100C900080830091840010918500C0E9D1E01B831E
:100CA0000A836C857D857F836E838C819D81681B23
:100CB000790B80E090E00E94AC1420E030E040E846
:100CC00057E40E9463156B017C0188819981B8010A
:100CD000681B790B80E090E00E94AC149B01AC0192
:100CE000C701B6010E949313288539854A855B8523
:100CF0000E9463156E877F87888B998B81E08E8F2A
:100D0000FF91EF91DF91CF91BF91AF919F918F9123
:100D10007F916F915F914F913F912F911F910F9113
:100D2000FF90EF90DF90CF900F900FBE0F901F902D
:100D300018951F920F920FB60F921124CF92DF9247
:100D4000EF92FF922F933F934F935F936F937F9315
:100D50008F939F93AF93BF93CF93DF93EF93FF93C3
:100D6000C090C601D090C701E090C801F090C901C1
:100D700020E030E0A901C701B6010E94FF138823DB
:100D800049F1C0EBD1E06C857D858C819D81681B2C
:100D9000790B80E090E00E94AC1420E030E040E865
:100DA00057E40E946315288539854A855B850E9432
:100DB00063159B01AC01C701B6010E94FF13181611
:100DC0004CF0C092BE01D092BF01E092C001F092FF
:100DD000C10141C0C090CA01D090CB01E090CC01CC
:100DE000F090CD0120E030E0A901C701B6010E94DA
:100DF000FF13882349F1C0EBD1E06C857D858E819E
:100E00009F81681B790B80E090E00E94AC1420E089
:100E100030E040E857E40E946315288539854A850B
:100E20005B850E9463159B01AC01C701B6010E945E
:100E3000FF1318164CF0C092C201D092C301E09289
:100E4000C401F092C50107C0E0EBF1E0848595850F
:100E5000019695878487C090A601D090A701E09065
:100E6000A801F090A90120E030E0A901C701B60176
:100E70000E94FF13882349F1C0E9D1E06C857D858C
:100E80008C819D81681B790B80E090E00E94AC14FE
:100E900020E030E040E857E40E946315288539855A
:100EA0004A855B850E9463159B01AC01C701B601B1
:100EB0000E94FF1318164CF0C0929E01D0929F0121
:100EC000E092A001F092A10141C0C090AA01D0908F
:100ED000AB01E090AC01F090AD0120E030E0A90161
:100EE000C701B6010E94FF13882349F1C0E9D1E090
:100EF0006C857D858E819F81681B790B80E090E0F9
:100F00000E94AC1420E030E040E857E40E946315F2
:100F1000288539854A855B850E9463159B01AC0154
:100F2000C701B6010E94FF1318164CF0C092A2012F
:100F3000D092A301E092A401F092A50107C0E0E9DC
:100F4000F1E084859585019695878487FF91EF91DF
:100F5000DF91CF91BF91AF919F918F917F916F91D1
:100F60005F914F913F912F91FF90EF90DF90CF9045
:100F70000F900FBE0F901F9018951F920F920FB6F3
:100F80000F9211242F933F934F935F936F937F930F
:100F90008F939F93AF93BF93EF93FF9380917B01C8
:100FA00081300CF4BCC083301CF08330C9F1B7C071
:100FB000E9E7F1E0A385B4853C9181E090E0AC01E4
:100FC000038802C0440F551F0A94E2F7242F20958E
:100FD00023232C93A585B6854C919C01048802C0DF
:100FE000220F331F0A94E2F7242B2C93A785B08994
:100FF0003C91AC01058802C0440F551F0A94E2F7EA
:10100000242F209523232C93A189B2892C91068823
:1010100002C0880F991F0A94E2F7822B8C93B9C003
:10102000E0917901F0917A010280F381E02D89E766
:1010300091E009958F3FC1F5E9E7F1E0A385B4851B
:101040003C9181E090E0AC01038802C0440F551F41
:101050000A94E2F7242F209523232C93A585B685A7
:101060004C919C01048802C0220F331F0A94E2F7BE
:10107000242B2C93A785B0893C91AC01058802C034
:10108000440F551F0A94E2F7242F209523232C9315
:10109000A189B2892C91068802C0880F991F0A94F1
:1010A000E2F7822B8C9375C0E9E7F1E0A385B48564
:1010B0003C9181E090E0AC01038802C0440F551FD1
:1010C0000A94E2F7242F209523232C93A585B68537
:1010D0003C91AC01048802C0440F551F0A94E2F70A
:1010E000242F209523232C93A785B0893C91AC0114
:1010F000058802C0440F551F0A94E2F7242F20955B
:1011000023232C93A189B2892C91068802C0880FD1
:10111000991F0A94E2F7809582238C933AC0E9E7FD
:10112000F1E0A385B4853C9181E090E0AC010388B7
:1011300002C0440F551F0A94E2F7242F2095232361
:101140002C93A585B6853C91AC01048802C0440F60
:10115000551F0A94E2F7242F209523232C93A7856B
:10116000B0893C91AC01058802C0440F551F0A9418
:10117000E2F7242F209523232C93A189B2892C9167
:10118000068802C0880F991F0A94E2F7809582238F
:101190008C93FF91EF91BF91AF919F918F917F9130
:1011A0006F915F914F913F912F910F900FBE0F90D4
:1011B0001F9018951F920F920FB60F9211242F9324
:1011C0003F934F935F936F937F938F939F93AF93CF
:1011D000BF93EF93FF938091640181300CF4BCC006
:1011E00083301CF08330C9F1B7C0E2E6F1E0A3859B
:1011F000B4853C9181E090E0AC01038802C0440FCB
:10120000551F0A94E2F7242F209523232C93A585BC
:10121000B6854C919C01048802C0220F331F0A94AA
:10122000E2F7242B2C93A785B0893C91AC0105886B
:1012300002C0440F551F0A94E2F7242F2095232360
:101240002C93A189B2892C91068802C0880F991F1E
:101250000A94E2F7822B8C93B9C0E0916201F0917D
:1012600063010280F381E02D82E691E009958F3FD2
:10127000C1F5E2E6F1E0A385B4853C9181E090E020
:10128000AC01038802C0440F551F0A94E2F7242FD3
:10129000209523232C93A585B6854C919C01048829
:1012A00002C0220F331F0A94E2F7242B2C93A78548
:1012B000B0893C91AC01058802C0440F551F0A94C7
:1012C000E2F7242F209523232C93A189B2892C9116
:1012D000068802C0880F991F0A94E2F7822B8C932C
:1012E00075C0E2E6F1E0A385B4853C9181E090E031
:1012F000AC01038802C0440F551F0A94E2F7242F63
:10130000209523232C93A585B6853C91AC010488B8
:1013100002C0440F551F0A94E2F7242F209523237F
:101320002C93A785B0893C91AC01058802C0440F7D
:10133000551F0A94E2F7242F209523232C93A1898B
:10134000B2892C91068802C0880F991F0A94E2F78F
:10135000809582238C933AC0E2E6F1E0A385B485C0
:101360003C9181E090E0AC01038802C0440F551F1E
:101370000A94E2F7242F209523232C93A585B68584
:101380003C91AC01048802C0440F551F0A94E2F757
:10139000242F209523232C93A785B0893C91AC0161
:1013A000058802C0440F551F0A94E2F7242F2095A8
:1013B00023232C93A189B2892C91068802C0880F1F
:1013C000991F0A94E2F7809582238C93FF91EF9105
:1013D000BF91AF919F918F917F916F915F914F914D
:1013E0003F912F910F900FBE0F901F9018951F9255
:1013F0000F920FB60F9211242F933F934F935F9349
:101400008F939F93AF93BF93EF93FF9380917B0153
:101410008230E1F1833009F46FC0813009F0A4C05B
:10142000E9E7F1E0A385B4854C9181E090E09C016F
:10143000038802C0220F331F0A94E2F7242B2C9357
:10144000A585B6854C919C01048802C0220F331FEC
:101450000A94E2F7242B2C93A785B0893C91AC0128
:10146000058802C0440F551F0A94E2F7242F2095E7
:1014700023232C93A189B2892C91068802C0880F5E
:10148000991F0A94E2F7822B8C93A8C0E9E7F1E058
:10149000A385B4853C9181E090E0AC01038802C053
:1014A000440F551F0A94E2F7242F209523232C93F1
:1014B000A585B6854C919C01048802C0220F331F7C
:1014C0000A94E2F7242B2C93A785B0894C919C01B8
:1014D000058802C0220F331F0A94E2F7242B2C93B5
:1014E000A189B2892C91068802C0880F991F0A949D
:1014F000E2F7822B8C9372C0E9E7F1E0A385B48513
:101500003C9181E090E0AC01038802C0440F551F7C
:101510000A94E2F7242F209523232C93A585B685E2
:101520004C919C01048802C0220F331F0A94E2F7F9
:10153000242B2C93A785B0893C91AC01058802C06F
:10154000440F551F0A94E2F7242F209523232C9350
:10155000A189B2892C91068802C0880F991F0A942C
:10156000E2F7822B8C933AC0E9E7F1E0A385B485DA
:101570003C9181E090E0AC01038802C0440F551F0C
:101580000A94E2F7242F209523232C93A585B68572
:101590003C91AC01048802C0440F551F0A94E2F745
:1015A000242F209523232C93A785B0893C91AC014F
:1015B000058802C0440F551F0A94E2F7242F209596
:1015C00023232C93A189B2892C91068802C0880F0D
:1015D000991F0A94E2F7809582238C93809164018D
:1015E0008230E1F1833009F46FC0813009F0A4C08A
:1015F000E2E6F1E0A385B4854C9181E090E09C01A6
:10160000038802C0220F331F0A94E2F7242B2C9385
:10161000A585B6854C919C01048802C0220F331F1A
:101620000A94E2F7242B2C93A785B0893C91AC0156
:10163000058802C0440F551F0A94E2F7242F209515
:1016400023232C93A189B2892C91068802C0880F8C
:10165000991F0A94E2F7822B8C93A8C0E2E6F1E08E
:10166000A385B4853C9181E090E0AC01038802C081
:10167000440F551F0A94E2F7242F209523232C931F
:10168000A585B6854C919C01048802C0220F331FAA
:101690000A94E2F7242B2C93A785B0894C919C01E6
:1016A000058802C0220F331F0A94E2F7242B2C93E3
:1016B000A189B2892C91068802C0880F991F0A94CB
:1016C000E2F7822B8C9372C0E2E6F1E0A385B48549
:1016D0003C9181E090E0AC01038802C0440F551FAB
:1016E0000A94E2F7242F209523232C93A585B68511
:1016F0004C919C01048802C0220F331F0A94E2F728
:10170000242B2C93A785B0893C91AC01058802C09D
:10171000440F551F0A94E2F7242F209523232C937E
:10172000A189B2892C91068802C0880F991F0A945A
:10173000E2F7822B8C933AC0E2E6F1E0A385B48510
:101740003C9181E090E0AC01038802C0440F551F3A
:101750000A94E2F7242F209523232C93A585B685A0
:101760003C91AC01048802C0440F551F0A94E2F773
:10177000242F209523232C93A785B0893C91AC017D
:10178000058802C0440F551F0A94E2F7242F2095C4
:1017900023232C93A189B2892C91068802C0880F3B
:1017A000991F0A94E2F7809582238C93FF91EF9121
:1017B000BF91AF919F918F915F914F913F912F91E9
:1017C0000F900FBE0F901F901895CF92DF92EF925F
:1017D000FF920F931F93CF93DF9300D0CDB7DEB767
:1017E0008C01FB0160816623C9F07F018FEFE81A4D
:1017F000F80AC12CD12CD801ED91FC910190F08117
:10180000E02DC8010995892B59F0BFEFCB1ADB0AEF
:10181000F70161917F016111EECF02C0C12CD12C83
:101820008DE089838AE08A83D801ED91FC91019053
:10183000F081E02D6DE0C8010995892B71F0D80188
:10184000ED91FC910190F081E02D6A81C80109952C
:10185000892B31F481E090E005C080E090E002C087
:1018600082E090E08C0D9D1D0F900F90DF91CF9145
:101870001F910F91FF90EF90DF90CF9008952F92DE
:101880003F924F925F926F927F928F929F92AF9210
:10189000BF92CF92DF92EF92FF920F931F93CF935D
:1018A000DF93CDB7DEB7A5970FB6F894DEBF0FBEB6
:1018B000CDBF57985F9A56985E9A55985D9A249A2C
:1018C00085E290E02C98E9E7F1E09487838724E0B3
:1018D000238B239A2B98968785870F2EF3E0DF2E94
:1018E000F02DD48A229A2A98908B87876894BB24FB
:1018F000B1F8B58A219A2998928B818BCC24C39414
:10190000C68A3B9A88E290E0439802E611E0D8014B
:101910001C969C938E931B975396DC9253973A9AFE
:1019200042981E969C938E931D975496BC92549702
:10193000399A419850969C938E931F975596CC92C6
:101940005597389A409852969C938E9351975696F5
:101950001C920F2EFEE6EF2EF12CF02DD7018C916C
:1019600081608C938C9182608C9312820190F081C3
:10197000E02D0190F081E02D60E089E791E009958C
:101980007894F70180818160808380818460808386
:10199000D80112961C921297ED91FC910190F08162
:1019A000E02D60E0C80109957894B092C00088E904
:1019B0008093C100E2ECF0E08081867C86608083C9
:1019C000C092C500D092C400789464E171E088E0D0
:1019D00092E00E94E50B4D997FC26AE171E088E0D8
:1019E00092E00E94E50BBFEFE8E0FDE3B150E0407C
:1019F000F040E1F700C0000052985A9A49E650E0E2
:101A0000DA018C9181608C938C9182608C93E89A3E
:101A100020EB31E080E090E4ACE1B6E4F901828FA4
:101A2000938FA48FB58F868B978BA08FB18F78946F
:101A300053985B9AFA0120812460208320812860DA
:101A40002083E99AE0E9F1E0828F938FA48FB58F2C
:101A5000868B978BA08FB18F789400EB11E00F2EBF
:101A6000F9E7CF2EF1E0DF2EF02D0F2EF3E02F2E31
:101A7000F02D7F018C2C9D2C1F8E19A2FFEFFAA355
:101A80001BA221E02CA31DA20F2EF2E6AF2EF1E047
:101A9000BF2EF02D33243394D8015E968C915E973F
:101AA000882309F40AC15E961C925E971E964D909B
:101AB0005D906D907C90519720E030E041E654E4D9
:101AC000C301B2010E945E1588230CF48BC020E094
:101AD00030E443E055E4C301B2010E94FF1318163D
:101AE0000CF480C020E030E04AE754E4C301B201C6
:101AF0000E94FF1318160CF053C020E030E04AEFAC
:101B000054E4C301B2010E945E1588230CF058C052
:101B100020E030E04FEA54E4C301B2010E945E15B8
:101B20008823BCF020E030E048EC54E4C301B2016B
:101B30000E94FF1318166CF0F60112820190F081DA
:101B4000E02D0190F081E02D60E0882D992D099520
:101B5000B4C020E030E84BEB54E4C301B2010E9472
:101B6000921320E030E04AEF53E40E94041420E096
:101B700030E04FE753E40E9463150E94761461152C
:101B8000710521F4D60112961C9222C06330BFEF7A
:101B90007B074CF06E3F7105B4F477236CF405C0FD
:101BA00062E07FEF02C062E07FEF22E0F601228375
:101BB0007195619571090CC01616170634F008C0AE
:101BC0006EEF70E002C06EEF70E0D60112963C92AC
:101BD000D601ED91FC910190F081E02D882D992D99
:101BE00009956BC020E030EC4FE055E4C301B20131
:101BF0000E945E1588230CF454C020E030E84BE3CB
:101C000055E4C301B2010E94FF1318160CF449C039
:101C100020E030E046E155E4C301B2010E94FF1329
:101C2000181624F520E030E445E355E4C301B20181
:101C30000E945E1588230CF09AC420E030E046E153
:101C400055E4C301B2010E94921320E030E04AEF54
:101C500053E40E94041420E030E04FE753E40E9474
:101C600063150E9476146115710521F4F601128244
:101C70006F8D0DC0D60112962C926230710524F042
:101C80006F3F710524F002C06CA101C06AA1D601AA
:101C9000ED91FC910190F081E02D882D992D099511
:101CA0000CC0F60112820190F081E02D0190F081CC
:101CB000E02D60E0882D992D0995D7015E968C91D5
:101CC0005E97882309F4E8CE5E961C925E971E9676
:101CD0004D905D906D907C90519720E030E041E612
:101CE00054E4C301B2010E945E1588230CF48AC03B
:101CF00020E030E443E055E4C301B2010E94FF1349
:101D000018160CF47FC020E030E04AE754E4C30129
:101D1000B2010E94FF1318160CF052C020E030E010
:101D20004AEF54E4C301B2010E945E1588230CF00F
:101D300057C020E030E04FEA54E4C301B2010E94F2
:101D40005E158823B4F020E030E048EC54E4C30191
:101D5000B2010E94FF13181664F0F501128201907F
:101D6000F081E02D0190F081E02D60E0C501099542
:101D700091CE20E030E84BEB54E4C301B2010E9465
:101D8000921320E030E04AEF53E40E94041420E074
:101D900030E04FE753E40E9463150E94761461150A
:101DA000710521F4D50112961C9223C06330BFEF58
:101DB0007B074CF06E3F7105B4F477236CF405C0DB
:101DC00062E07FEF02C062E07FEF82E0F501828394
:101DD0007195619571090DC01616170634F009C08A
:101DE0006EEF70E002C06EEF70E081E0D5011296F8
:101DF0008C93D501ED91FC910190F081E02DC5010E
:101E0000099548CE20E030EC4FE055E4C301B20123
:101E10000E945E1588230CF453C020E030E84BE3A9
:101E200055E4C301B2010E94FF1318160CF448C018
:101E300020E030E046E155E4C301B2010E94FF1307
:101E4000181624F520E030E445E355E4C301B2015F
:101E50000E945E1588230CF08FC320E030E046E13D
:101E600055E4C301B2010E94921320E030E04AEF32
:101E700053E40E94041420E030E04FE753E40E9452
:101E800063150E9476146115710521F4F501128223
:101E900060E00DC0D50112962C926230710524F0DD
:101EA0006F3F710524F002C061E001C06FEFD50102
:101EB000ED91FC910190F081E02DC5010995EACDED
:101EC000F50112820190F081E02D0190F081E02D6A
:101ED00060E0C5010995DECD4F99A7C162E271E0CE
:101EE00088E092E00E94E50B712C0EEF11E0C02E0D
:101EF000D12E0F2EF2E62F2EF1E03F2EF02D66248C
:101F000063940F2EF9E74F2EF1E05F2EF02D38A2EB
:101F10002F8E372CD80116964D915C9117971496F9
:101F20002D913C91159718968D919C911997189623
:101F30006D917C911997840F951F821B930B0E94C2
:101F4000D015892B09F447C0F801A280B3808481A1
:101F50009581608571850E94D015D501A80FB91FA4
:101F60008C918D3409F450C020E030E018C0D801C5
:101F700014968D919C91159718966D917C91199757
:101F80008E0D9F1D0E94D015D501A80FB91F8C91F1
:101F90008D3421F42E3F3F4FC9F41DC097017901C4
:101FA000EFEFEE1AFE0AF801A681B7814481558150
:101FB00080859185608571858A0F9B1F841B950B99
:101FC0000E94D015E816F90690F205C0E114F1045C
:101FD000D9F0B12C0AC0D80116968D919C91179713
:101FE00015969C938E93149795CFD801ED91FC9103
:101FF0000280F381E02D8C2D9D2D0995B3948B2DBE
:1020000090E08E159F0588F3F80146815781248161
:1020100035818085918560857185840F951F821B30
:10202000930B0E94D015482F792EA82EB92EA114FB
:10203000B10409F466C282809380CE0101967C01CE
:1020400020E030E0D80114968D919C911597189658
:102050006D917C911997820F931F0E94D015F40106
:10206000E80FF91F8081F70181937F012F5F3F4FB8
:10207000A216B30639F7572DBE016F5F7F4F8BE273
:1020800091E00E94E6014C0118161906CCF45E019D
:10209000F5E1AF0EB11CE12CF12CD801ED91FC91D2
:1020A0000280F381E02D8C2D9D2D0995F501819302
:1020B0005F01FFEFEF1AFF0AE814F90474F330C26E
:1020C00099200CF027CFE12CF12CD801ED91FC9157
:1020D0000280F381E02D8C2D9D2D0995B1E0EB1A46
:1020E000F108E814F90489F715CF8F3F91052CF01A
:1020F0008FEF90E002C081E09FEF288D2D3231F00C
:10210000223411F02B3231F4362C04C09195819594
:102110009109362C2F89203309F03FC0009719F41C
:10212000F201128230C0332059F0E3E0D20112965E
:10213000EC938230910514F18F3F910524F121C079
:102140008330FFEF9F0734F08E3F91058CF4992385
:102150005CF402C082E09FEFE2E0D2011296EC93C1
:102160009195819591090FC0181619061CF00BC0A6
:102170008EEF90E0D20112966C9205C081E090E063
:1021800002C08FEF90E0D201ED91FC910190F081BF
:10219000E02D682FC2010995BDCE213309F0BACEDA
:1021A000009721F4EF8DF8A1128233C0332061F043
:1021B000E3E0AF8DB8A11296EC938230910524F143
:1021C0008F3F910534F123C08330FFEF9F0734F038
:1021D0008E3F910594F4992364F402C082E09FEF4E
:1021E000E2E0AF8DB8A11296EC939195819591099B
:1021F00010C0181619061CF00CC08EEF90E0AF8DC1
:10220000B8A112966C9205C081E090E002C08FEFF9
:1022100090E0AF8DB8A1ED91FC9111970190F08104
:10222000E02D682FCD01099575CE4E99A9C16AE3BD
:1022300071E088E092E00E94E50B84E18093BA00AF
:10224000E9EBF0E080818C7F808381E18093B800AE
:10225000ECEBF0E08081816080838081846080830A
:1022600080818F74806480831092BD00789400ED2B
:1022700011E00F2EF2E6CF2EF1E0DF2EF02D0F2E23
:10228000F3E05F2EF02D0F2EF9E76F2EF1E07F2E99
:10229000F02DF801808991892685378542895389F7
:1022A00062897389840F951F821B930B0E94D0153E
:1022B000892B09F446C0A484B584868597856289F4
:1022C00073890E94D015D501A80FB91F8C918D3448
:1022D00009F452C020E030E018C0D8011E968D915C
:1022E0009C911F9752966D917C9153978E0D9F1DD7
:1022F0000E94D015D501A80FB91F8C918D3421F4FF
:102300002E3F3F4FC9F41DC097017901EFEFEE1A40
:10231000FE0AF801A089B18946855785828993898B
:10232000628973898A0F9B1F841B950B0E94D015AD
:10233000E816F90690F205C0E114F104E9F0B12CB9
:102340000AC0D80150968D919C9151971F969C93ED
:102350008E931E979ECFD8011A96ED91FC911B97F4
:102360000280F381E02D8AED91E00995B3948B2DE5
:1023700090E08E159F0578F3F801408951892685F4
:1023800037858289938962897389840F951F821B9F
:10239000930B0E94D015482F492EA82EB92EA114B8
:1023A000B10409F4C9C084849584CE0101967C01EE
:1023B00020E030E0D8011E968D919C911F97529697
:1023C0006D917C915397820F931F0E94D015F40159
:1023D000E80FF91F8081F70181937F012F5F3F4F45
:1023E000A216B30639F7542DBE016F5F7F4F8BE203
:1023F00091E00E94E6014C0118161906DCF45E011A
:10240000F5E1AF0EB11CE12CF12CD8011A96ED913B
:10241000FC911B970280F381E02D8AED91E00995F4
:10242000F50181935F01FFEFEF1AFF0AE814F90449
:1024300064F391C099200CF02CCFE12CF12CD80141
:102440001A96ED91FC911B970280F381E02D8AEDA5
:1024500091E00995B1E0EB1AF108E814F90479F775
:1024600018CF8F3F91052CF08FEF90E002C081E0F4
:102470009FEF288D2D3219F49195819591092F891F
:102480002033F1F4009719F4F30112820FC0D30145
:1024900012965C928230910524F08F3F910534F0C2
:1024A00003C081E090E002C08FEF90E0D301ED9196
:1024B000FC910190F081E02D682FC3010995E9CED0
:1024C000213309F0E6CE009719F4F60112820FC00D
:1024D000D60112965C928230910524F08F3F9105CF
:1024E00034F003C081E090E002C08FEF90E0D601AD
:1024F000ED91FC910190F081E02D682FC6010995C6
:10250000C8CE40E050E0BE016F5F7F4F8BE291E0AC
:102510000E94E6014C01181619060CF4B8CDD0CD76
:1025200063E070E0CE0149960E9492018230BFEFD5
:102530009B070CF0DACDDFCD40E050E0BE016F5FCD
:102540007F4F8BE291E00E94E6014C0118161906BC
:102550000CF455CF6FCF63E070E0CE0149960E9436
:1025600092018230EFEF9E070CF07BCF80CFD60137
:1025700012962C926AA18BCBF50122826FEF97CC39
:1025800080E090E0A5960FB6F894DEBF0FBECDBFF9
:10259000DF91CF911F910F91FF90EF90DF90CF903F
:1025A000BF90AF909F908F907F906F905F904F9073
:1025B0003F902F900895EF92FF920F931F93CF9328
:1025C000DF93CEEFD1E01D821C821F821E8219860E
:1025D000188606E411E0198308831F861E86198A6F
:1025E000188A1B8A1A8A8EE491E09B878A870F2EAD
:1025F000F5E6EF2EF12CF02DFB8AEA8A8A899B8979
:102600000E94EA159D878C87F986E88688859985DA
:102610000E94EA159B838A83C0EDD1E01D821C8253
:102620001F821E8219861886198308831F861E86BC
:10263000198A188A1B8A1A8A1B870A87198E188E8C
:102640001B8E1A8E1D8E1C8E1D8B0C8B1BA21AA22C
:102650001DA21CA21FA21EA21F8F0E8F19A603E38C
:1026600010E01D8F0C8F8C8D9D8D0E94EA159F8B25
:102670008E8B1FA30EA38EA19FA10E94EA1599A382
:1026800088A319870887888599850E94EA159B8306
:102690008A831B8B0A8B8A899B890E94EA159D87F6
:1026A0008C8780EB91E00E94DB0480E991E00E943E
:1026B000DB04C9E7D1E01A8286E591E0998388833B
:1026C00080E490E00E94610484B58C7F84BD85B570
:1026D000877F85BDE881F9810190F081E02D60E080
:1026E000CE010995C2E6D1E01A828EE591E0998388
:1026F000888380E490E00E94610484B58C7F84BD6F
:1027000085B5877F85BDE881F9810190F081E02D55
:1027100060E0CE010995DF91CF911F910F91FF905D
:10272000EF9008955058BB27AA270E94AA130C9433
:1027300024150E94161538F00E941D1520F039F45A
:102740009F3F19F426F40C9413150EF4E095E7FB63
:102750000C940D15E92F0E94351558F3BA1762072E
:1027600073078407950720F079F4A6F50C945715A4
:102770000EF4E0950B2EBA2FA02D0B01B90190019C
:102780000C01CA01A0011124FF27591B99F0593FE0
:1027900050F4503E68F11A16F040A22F232F342F28
:1027A0004427585FF3CF469537952795A795F04076
:1027B0005395C9F77EF41F16BA0B620B730B840B8B
:1027C000BAF09150A1F0FF0FBB1F661F771F881F43
:1027D000C2F70EC0BA0F621F731F841F48F487959B
:1027E00077956795B795F7959E3F08F0B0CF93958D
:1027F000880F08F09927EE0F9795879508950E9406
:10280000E91408F481E008950E9418140C9424152A
:102810000E941D1558F00E94161540F029F45F3FE4
:1028200029F00C940D1551110C9458150C94131596
:102830000E94351568F39923B1F3552391F3951B45
:10284000550BBB27AA2762177307840738F09F5FD1
:102850005F4F220F331F441FAA1FA9F335D00E2E3E
:102860003AF0E0E832D091505040E695001CCAF7AB
:102870002BD0FE2F29D0660F771F881FBB1F26176E
:1028800037074807AB07B0E809F0BB0B802DBF0145
:10289000FF2793585F4F3AF09E3F510578F00C9414
:1028A0000D150C9458155F3FE4F3983ED4F38695CC
:1028B00077956795B795F7959F5FC9F7880F911D35
:1028C0009695879597F90895E1E0660F771F881F21
:1028D000BB1F621773078407BA0720F0621B730BD4
:1028E000840BBA0BEE1F88F7E09508950E947D14C3
:1028F0006894B1110C94581508950E943D1588F004
:102900009F5798F0B92F9927B751B0F0E1F0660FB3
:10291000771F881F991F1AF0BA95C9F714C0B130F4
:1029200091F00E945715B1E008950C945715672F48
:10293000782F8827B85F39F0B93FCCF38695779523
:102940006795B395D9F73EF490958095709561950C
:102950007F4F8F4F9F4F0895E89409C097FB3EF437
:1029600090958095709561957F4F8F4F9F4F9923DC
:10297000A9F0F92F96E9BB279395F695879577955A
:102980006795B795F111F8CFFAF4BB0F11F460FF1A
:102990001BC06F5F7F4F8F4F9F4F16C0882311F072
:1029A00096E911C0772321F09EE8872F762F05C086
:1029B000662371F096E8862F70E060E02AF09A9521
:1029C000660F771F881FDAF7880F9695879597F916
:1029D0000895990F0008550FAA0BE0E8FEEF1616B0
:1029E0001706E807F907C0F012161306E407F50703
:1029F00098F0621B730B840B950B39F40A2661F077
:102A0000232B242B252B21F408950A2609F4A14019
:102A1000A6958FEF811D811D089597F99F6780E826
:102A200070E060E008959FEF80EC089500240A9420
:102A30001616170618060906089500240A94121699
:102A40001306140605060895092E0394000C11F4CC
:102A5000882352F0BB0F40F4BF2B11F460FF04C079
:102A60006F5F7F4F8F4F9F4F089557FD9058440FD2
:102A7000551F59F05F3F71F04795880F97FB991FDD
:102A800061F09F3F79F0879508951216130614069A
:102A9000551FF2CF4695F1DF08C016161706180627
:102AA000991FF1CF86957105610508940895E89402
:102AB000BB2766277727CB0197F908950E94E91471
:102AC00008F48FEF08950E9476150C9424150E9447
:102AD000161538F00E941D1520F0952311F00C9466
:102AE0000D150C94131511240C9458150E943515CE
:102AF00070F3959FC1F3950F50E0551F629FF00151
:102B0000729FBB27F00DB11D639FAA27F00DB11D69
:102B1000AA1F649F6627B00DA11D661F829F2227F2
:102B2000B00DA11D621F739FB00DA11D621F839F79
:102B3000A00D611D221F749F3327A00D611D231F4F
:102B4000849F600D211D822F762F6A2F11249F579D
:102B500050409AF0F1F088234AF0EE0FFF1FBB1FA0
:102B6000661F771F881F91505040A9F79E3F51055F
:102B700080F00C940D150C9458155F3FE4F3983ECB
:102B8000D4F3869577956795B795F795E7959F5F09
:102B9000C1F7FE2B880F911D9695879597F908959B
:102BA000AA1BBB1B51E107C0AA1FBB1FA617B70773
:102BB00010F0A61BB70B881F991F5A95A9F780958F
:102BC0009095BC01CD010895EE0FFF1F0590F49183
:102BD000E02D09940F931F93CF93DF9382309105DB
:102BE00010F482E090E0E0911402F091150220E0F0
:102BF00030E0A0E0B0E0309719F1408151810281CE
:102C0000138148175907C8F08417950769F410977E
:102C100031F012960C93129713961C9327C00093D1
:102C200014021093150222C02115310519F0421724
:102C3000530718F49A01BD01EF01DF01F801DBCF62
:102C400021153105F9F0281B390B2430310580F4AA
:102C50008A819B816115710521F0FB019383828339
:102C600004C09093150280931402FE01329644C072
:102C7000FE01E20FF31F81939193225031093983B2
:102C800028833AC02091120230911302232B41F481
:102C9000209102013091030130931302209312021C
:102CA00020910001309101012115310541F42DB72A
:102CB0003EB74091040150910501241B350BE09172
:102CC0001202F0911302E217F307A0F42E1B3F0B40
:102CD0002817390778F0AC014E5F5F4F241735078E
:102CE00048F04E0F5F1F50931302409312028193DE
:102CF000919302C0E0E0F0E0CF01DF91CF911F910E
:102D00000F910895CF93DF93009709F481C0FC01E0
:102D1000329713821282A0911402B091150210977B
:102D200081F420813181820F931F20911202309112
:102D300013022817390751F5F0931302E09312029A
:102D400067C0ED0120E030E0CE17DF0740F44A8194
:102D50005B819E0141155105F1F0EA01F5CFD38366
:102D6000C28340815181840F951FC817D90759F438
:102D700088819981840F951F0296918380838A812F
:102D80009B81938382832115310529F4F0931502E9
:102D9000E09314023DC0E901FB83EA834991599114
:102DA000C40FD51FEC17FD0761F480819181840F5A
:102DB000951F0296E90199838883828193819B8381
:102DC0008A83E0E0F0E012968D919C911397009732
:102DD00019F0FD01DC01F7CF8D919C9111979D01B8
:102DE0002E5F3F4F820F931F2091120230911302EA
:102DF0002817390769F4309729F4109215021092B8
:102E0000140202C013821282B0931302A093120222
:0A2E1000DF91CF910895F894FFCFF1
:102E1A0000001602200025780046616C7365005494
:102E2A007275650053746172740070776D4D6F64CA
:102E3A006500756172744D6F6465004D447B303175
:102E4A007D7B2B2D427D3F3F3F006932634D6F648E
:102E5A00650000000000200143010000000061013C
:102E6A004301000000008A018C01000000008E016D
:022E7A009001C5
:00000001FF
